:1000000010C0CCC7C1C732C031C030C02FC02EC055
:100010002DC02CC02BC06EC729C028C027C026C049
:1000200025C011241FBECFE5D2E0DEBFCDBF84B70F
:100030008093BA0014BEA89581B5886181BD8FE018
:1000400081BD10E0A0E6B0E0EAE4F9E102C005906D
:100050000D92A237B107D9F720E0A2E7B0E001C0C6
:100060001D92AA3BB207E1F7ABD76DCCC9CF2FB732
:10007000F8946091B6007091B7008091B8009091AB
:10008000B9002FBF08958F929F92AF92BF92CF92E7
:10009000DF92EF92FF921F93CF93DF93EC01162F25
:1000A000E6DF2981211789F019836A837B838C839A
:1000B0009D83DF91CF911F91FF90EF90DF90CF90C4
:1000C000BF90AF909F908F900895CA80DB80EC80A6
:1000D000FD804B015C018C189D08AE08BF087501BE
:1000E000640139E1C316D104E104F10410F338814D
:1000F0003217F9F22883222339F06E837F838887B1
:10010000998781E08A87D5CF2E813F81621B730B4F
:100110007D876C8781E08B87CCCFCF9369B3C1E0BB
:10012000669561706C2789E990E0ADDF69B362FB89
:10013000662760F96C278BE890E0CF91A4CFA82FB9
:10014000462F8091630090E06CE370E096DBE091D5
:100150006200E80FF92FF11D8091610090E06CE3DF
:1001600070E08BDB20916000280F392F311DE217E2
:10017000F30779F08A2F90E06CE370E07EDB480FA4
:10018000592F511DE217F30730F481E04E175F0736
:1001900030F480E0089581E04E175F0718F44217AD
:1001A0005307B8F7089517B886E886B9369A36998E
:1001B000FECF84B195B1369A3699FECF84B195B110
:1001C00016B86DE070E059DB0895D7980895D39A7A
:1001D0000895D39808958BB380658BBB8AB38065EF
:1001E0008ABB8FEF8FB98AE28DB980EF8EB90895FF
:1001F0000F931F93CF93DF93D82FC8E0E8DF8DE0F4
:100200008A95F1F700000D2F10E0D0FF20C0DDDF50
:1002100015950795D02FDDDF8DE08A95F1F7000069
:10022000C15061F7D4DF8DE08A95F1F70000CDDF92
:10023000D0DF8DE08A95F1F70000C9DF8DE08A9567
:10024000F1F70000DF91CF911F910F910895D79A98
:10025000DFCFD79A8DE08A95F1F70000BADF8DE005
:100260008A95F1F70000B1DF8DE08A95F1F7000083
:100270000895ABDFAEDF8DE08A95F1F70000D79AE5
:100280008DE08A95F1F70000A2DF8DE08A95F1F705
:1002900000000895EF92FF920F931F93CF93DF9387
:1002A0007C01D62FC42FE5DF80E4A2DFD2DFE1DFBF
:1002B00080EC9EDF870184E0E80EF11CF80181915B
:1002C0008F0196DF0E151F05C9F7C3DFD2DF8C2F14
:1002D00087708868D11101C080E88ADFDF91CF91F3
:1002E0001F910F91FF90EF90B4CFCF93DF9300D089
:1002F00000D0CDB7DEB789836A834B832C834091CE
:10030000670061E0CE010196C5DF0F900F900F905E
:100310000F90DF91CF910895E8DF87E0A8952FEF48
:1003200030E792E0215030409040E1F700C00000FB
:100330008150A1F70895CF93DF9300D000D0CDB7BF
:10034000DEB7382F562FA22FA17080E020FD08C005
:10035000832F6AE0A3DAE82FF0E0E859FF4F8081AD
:100360008983A11134C0832F6AE098DAE92FF0E085
:10037000E859FF4F30813A83A22FA27080E021FD1F
:1003800008C0852F6AE08ADAE82FF0E0E859FF4FCD
:1003900080818B8380E0A11108C0852F6AE07EDA1E
:1003A000E92FF0E0E859FF4F80818C83442311F05E
:1003B00030683A834091670061E0CE0101966ADFC0
:1003C0000F900F900F900F90DF91CF91089530E034
:1003D000D2CF2F923F924F925F926F927F928F92E5
:1003E0009F92AF92BF92CF92DF92EF92FF920F93C4
:1003F0001F93CF93DF93CDB7DEB728970FB6F8944E
:10040000DEBF0FBECDBF1C0178876F835E834D8337
:100410002EDE2B013C012BDE4B015C0128E5820E18
:1004200022E0921EA11CB11C109296001092950021
:100430001092A4001092A30019821A821B821C82BF
:1004400010E001E0A89569DE12DE6B017C01DC01A1
:10045000CB0184199509A609B70981339547A105F0
:10046000B10508F088C08091A3008823C9F01092DC
:10047000A30011116EC0F101808190E0019668E146
:1004800070E02CDA8083ED81FE8100834601570104
:10049000F8E58F0EF2E09F1EA11CB11C260137016A
:1004A000809199008823D9F0C814D904EA04FB0488
:1004B000B0F0111156C0F101808190E0019668E121
:1004C00070E00CDA8083ED81FE81008346015701E4
:1004D000F8E78F0E911CA11CB11C260137018091F9
:1004E0009500882339F010929500111145C026011E
:1004F000370111E0109296001092A400D701C601B6
:1005000029813A814B815C81821B930BA40BB50B33
:1005100084369105A105B10508F494CFC701B60151
:100520002EE531E040E050E0ECD920FF22C021E090
:10053000012E01C0220F0A94EAF741E0EF81F8850D
:100540006081F1018081F7DEC982DA82EB82FC8270
:1005500079CFEF81F885808190E001966CE370E0BF
:1005600090CFEF81F885808190E001966CE370E098
:10057000A8CF20E0E2CF10E0812F28960FB6F894A4
:10058000DEBF0FBECDBFDF91CF911F910F91FF90C6
:10059000EF90DF90CF90BF90AF909F908F907F9023
:1005A0006F905F904F903F902F900895CF93DF937F
:1005B00000D000D0CDB7DEB719821A821B821C8210
:1005C00040E060E0CE01019665DE0F900F900F9045
:1005D0000F90DF91CF9108951DB8D6988BB38F7A85
:1005E0008BBB89E0D49A9DE09A95F1F70000D498EE
:1005F0009DE09A95F1F70000CE9902C0815091F7E5
:10060000D69A8DE08A95F1F70000D6989DE09A95EC
:10061000F1F70000E0CD88EE93E0CC9908C022E02D
:100620002A95F1F700C00197C1F780E0089581E0B5
:100630000895DE98DC9AEFDF8AE08A95F1F700C032
:10064000DE9A8DE08A95F1F700000895DC9AE3DFE9
:10065000882379F08AE08A95F1F700C0DE988AE075
:100660008A95F1F700C0DC98DE9A8EB1881F882742
:10067000881F08950F931F93CF938B018EB9CBE200
:100680008DE08A95F1F70000CDB9C5DF882389F0A8
:100690009AE09A95F1F700C0CDB9769BF1CFEDE0E5
:1006A000EA95F1F700009FB1F80190839FEF9FB9A1
:1006B000D69ACF911F910F910895CF93DF931F92F8
:1006C000CDB7DEB7DC988FB9BE016F5F7F4F80EF8B
:1006D000D1DF811105C080E00F90DF91CF910895A7
:1006E000D698BE016F5F7F4F8EEFC4DF882399F3EA
:1006F000898180958170F0CF9F92AF92BF92CF9207
:10070000DF92EF92FF920F931F93CF93DF931F928D
:10071000CDB7DEB7C82E5B01D42E83E0E82E992436
:100720009A94940EA89592DF8823E1F180EDC5DFBD
:100730008823C1F18C2DC1DF8823A1F187DF8823B5
:1007400089F181EDBADF882369F110E000E0D698E5
:10075000B501600F711F80EF8DDF882319F181E0F3
:10076000091508F480E081958FB9BE016F5F7F4F56
:100770008EEF80DFF82E8823A9F00F5F1F4F0D1535
:1007800030F357DF10927C008F2D0F90DF91CF91C7
:100790001F910F91FF90EF90DF90CF90BF90AF909F
:1007A0009F90089546DF18DFEA94E110BBCF81E007
:1007B00080937C00F12CE8CFEF92FF920F931F9370
:1007C000CF93DF9300D000D0CDB7DEB78C017B0193
:1007D00043E0BE016F5F7F4F80E08EDF81110DC06F
:1007E000E0E08E2F0F900F900F900F90DF91CF9140
:1007F0001F910F91FF90EF90089541E0BE016C5F53
:100800007F4F8FE079DFE82F882351F38C81881F99
:100810008827881F80937B002A81522F5F705A306F
:10082000E8F430E044E0359527954A95E1F7263025
:100830003105A4F48B81482F4F704A3078F48F73C0
:1008400090E034E0959587953A95E1F783309105EE
:1008500029F06AE009D8480F483120F081E0809300
:100860007C00BECF822F6AE0FFD7850FD7018C9323
:1008700080917600840F9927991F68E170E02ED847
:10088000D8018C93AECFBF92CF92DF92EF92FF92BE
:100890000F931F93CF93DF93E82EF62EB72ED42E0F
:1008A00003E0C62EA895D2DE882309F180ED05DF8E
:1008B0008823E9F08E2D01DF8823C9F0CF2DDB2DB1
:1008C0008991FBDE182F882391F08C2F8C198D15C0
:1008D000B8F3AFDE10927C00812FDF91CF911F9192
:1008E0000F91FF90EF90DF90CF90BF900895A1DE21
:1008F00073DE0150B9F681E080937C0010E0ECCF0C
:10090000FF920F931F93CF93DF93CDB7DEB72A9754
:100910000FB6F894DEBF0FBECDBF2091760030E059
:100920008091630090E04896821B930BE8E1F0E031
:10093000BF01D4D7182F8091610090E04896821BA8
:10094000930BBF01CBD7482F1A82198230E83C8322
:10095000809162002AE0622FA1D78295807F982B38
:100960009A83812F9BD78295807F982B9B833F838F
:100970008091600093D78295807F982B9D83842FF0
:100980008DD78295807F982B9E8344E0BE016F5F58
:100990007F4F87E078DF182F43E0BE016B5F7F4F0A
:1009A0008BE071DFF82E87E0898741E0BE01675F49
:1009B0007F4F8EE068DF082F41E0BE01665F7F4F0A
:1009C0008FE09ADE81110DC080E02A960FB6F89470
:1009D000DEBF0FBECDBFDF91CF911F910F91FF9072
:1009E00008958A858C7F888741E0BE01685F7F4FCC
:1009F0008FE049DF1F211023812331F310927A0009
:100A0000E4CFCF93611109C090917800992329F028
:100A100090917900981709F456C0A89598B341E0D1
:100A2000582F542721E030E001C0220F5A95EAF7F1
:100A3000922B98BB5FE768E391E051506040904093
:100A4000E1F700C0000098B32095292328BBA895A2
:100A500080937900409378002091640030E02F5F0C
:100A60003F4F2F71332720936400909177009F5F51
:100A70009F3F09F490E090937700C0E58111C1E5B4
:100A800066EA8FE090E0DED62C2F209580916400FE
:100A900090E063E070E0F1D6622F4296D3D6809169
:100AA000640090E063E070E0E8D66C2F4196CAD60F
:100AB0008091640090E063E070E0DFD660917700A1
:100AC0004096CF91BFC6CF910895CF93DF9300D0CA
:100AD000CDB7DEB78091AF00882341F080E060E0C1
:100AE00090DF0F900F90DF91CF91089580917A0061
:100AF0008111F4CF80917D008111F0CFBE016E5F36
:100B00007F4FCE01019658DE882341F380917B0010
:100B10008111E4CF6A81898112DBE1CF2F923F926C
:100B20004F925F926F927F928F929F92AF92BF92FD
:100B3000CF92DF92EF92FF920F931F93CF93DF93A9
:100B4000CDB7DEB761970FB6F894DEBF0FBECDBF4D
:100B500087E080936700CA9909C0A895DEDA8FE123
:100B60009EE40197F1F700C00000F5CF10929600C7
:100B7000109295008CE08A871B86BE01655F7F4FCF
:100B8000CE010A9619DE809163008C878091620005
:100B90008D87809161008E87809160008F870091A2
:100BA0007600188A198A20E040E068E389E3B4DB24
:100BB000AE01405F5F4FBE01655F7F4FCE010A9679
:100BC00008DC882309F415C120E044E56CE580E0E9
:100BD000A3DBAE014F5E5F4FBE01635F7F4FCE016F
:100BE0000C96F7DB882309F404C121E741E76CE5A3
:100BF00080E092DBAE014F5E5F4FBE01615F7F4FD1
:100C0000CE010E96E6DB882309F4F3C020E048E726
:100C10006DE68EE581DB2BDA2B013C01109295000D
:100C20001092A300812C912C5401A89576DA1FDA3A
:100C30006B017C01DC01CB0184199509A609B70978
:100C400081339547A105B10508F0D3C08091A30079
:100C5000882331F01092A30081E008272601370194
:100C600010919500112309F44AC010929500009349
:100C700076008C85809363008D85809362008E85DD
:100C8000809361008F85809360008889882309F4B0
:100C90005FC04B858A8590E04896801B910968E18A
:100CA00070E01CD6382F19822AE0842F622FF6D5E7
:100CB0008295807F982B9A83832FF0D58295807FB1
:100CC000982B9B8343E0BE016F5F7F4F80E0DBDDAD
:100CD000882309F441C041E0BE01675F7F4F8FE088
:100CE0000BDD882349F089858F77888741E0BE0135
:100CF000685F7F4F8FE0C7DD10927B002DC01092A0
:100D000096001092A400D701C60188199909AA0972
:100D1000BB0984369105A105B10508F486CFC7014A
:100D2000B6012EE531E040E050E0EBD520FD08C0F3
:100D300000FB222420F8312CF101E859FF4F1081EB
:100D4000212F48E76DE68EE5D0DA460157016DCFD9
:100D500080917B0081119DCF45EA4983809163009A
:100D60008A83509162005B83309161003C832091C3
:100D700060002D83909176009E83852784278327AA
:100D8000822789278F8347E050E070E060E0CE0142
:100D9000019649D5B5DD811106C081E080937A00C6
:100DA00061E080E02EDE13E0A89500DC9FEF2DEEE1
:100DB00082E0915020408040E1F700C0000020E038
:100DC00041E06B858A85B7DA9FEF27EE83E091508B
:100DD00020408040E1F700C00000115029F775DE87
:100DE00046D9609387007093880080938900909320
:100DF0008A0061960FB6F894DEBF0FBECDBFDF91BB
:100E0000CF911F910F91FF90EF90DF90CF90BF9007
:100E1000AF909F908F907F906F905F904F903F909A
:100E20002F9008950F931F93BED9909366008093DF
:100E300065002091AF00211129C08830904208F050
:100E400047C08FE19EE40197F1F700C00000ABD9E5
:100E5000883020E2920788F49093660080936500C2
:100E600081E08093AF0091EA9093BC001092BB00A8
:100E700060917800682780E0C4DD109272001092C3
:100E80007300109274001092750022C0893991424B
:100E9000A0F3EDD8009172001091730020917400BE
:100EA000309175000115110521053105A1F4611579
:100EB00071058105910521F461E070E080E090E02A
:100EC0006093720070937300809374009093750028
:100ED0001F910F910895601B710B820B930B683863
:100EE000734181059105A0F31092AF0080EA8093D1
:100EF000BC00C3CF1F920F920FB60F9211242F93F5
:100F00003F938F939F93AF93BF938091B60090913F
:100F1000B700A091B800B091B9003091B50026E0BB
:100F2000230F2D3768F129E8230F0396A11DB11D6A
:100F30002093B5008093B6009093B700A093B800BB
:100F4000B093B9008091B1009091B200A091B3002C
:100F5000B091B4000196A11DB11D8093B100909392
:100F6000B200A093B300B093B400BF91AF919F9132
:100F70008F913F912F910F900FBE0F901F9018955A
:100F80000296A11DB11DD4CF1F920F920FB60F92E2
:100F900011240F900FBE0F901F9018951F920F9263
:100FA0000FB60F9211248F938BB78F7B8BBF81E08D
:100FB0008093B0008F910F900FBE0F901F901895E7
:100FC000CF93DF93CDB7DEB729970FB6F894DEBF86
:100FD0000FBECDBF83E080BF83BF789499B7916087
:100FE00099BF91E09FBD8EBD86E886B98091BA0019
:100FF00010927D0083FF66C1877009F063C1809104
:10100000BD008F3F09F068C1EE24E3948091BD00DC
:10101000843008F0E12C8091BC00982F9E7FBB2487
:10102000B394903A09F054C191E0813A09F090E00C
:101030009093AF00BB24B39488B3887F88BB87B3F9
:10104000836087BBBA988AB380758ABB8BB386628C
:101050008BBB8BB386778BBB089ABDD847E050E03B
:1010600070E060E0CE010196C6D38981853A09F52A
:101070005A814B813C812D819E818527842783273E
:10108000822789276F81861314C0583190F44C331E
:1010900080F4383170F42C3360F4923050F4509373
:1010A000630040936200309361002093600090934E
:1010B00076008FE090E0AFD3863A09F011C130E1BD
:1010C000C32ED12C10E000E0612CA12C502EC601C3
:1010D000A2D3F82EC60101969ED3982EC601029681
:1010E0009AD30F5F1F4F2FEFF21671F1992D9E7F4C
:1010F000903551F59094891127C0C8018F719927B7
:1011000063E070E0BAD34C01409685D3482EC40109
:10111000419681D3782EC40142967DD33FEF43168A
:1011200071F0972D9E7F903551F47094871107C010
:1011300081E08F0D8F3F09F480E0481629F041E0EF
:101140004A1510F0A394652C53E0C50ED11C003253
:10115000110509F0BBCF81E0A812C2C0862D90E036
:1011600063E070E08AD36C01419655D3182F6092EA
:101170006400C60140964FD380937700117091E0D0
:1011800090937800911110937900E1100DC061E007
:1011900080E037DCBB2029F081E09091BD009430E5
:1011A00008F480E080937D003DDE8091AF00B110B7
:1011B000E5C281110FC08091650090916600883969
:1011C000914240F481E08093AF0081EA8093BC00BB
:1011D0001092BB008091AF00882309F4EBC241E07C
:1011E000BE01675F7F4F8FE087DA882331F0898502
:1011F000881F8827881F80937B0082DB811106C0AF
:1012000081E080937A0061E080E0FBDB80917A00EE
:10121000882309F46BC080E06091780011E06127B9
:10122000F0DB85B78C7F85BFB29B79C080E48ABF35
:101230008BB780648BBFEE2009F474C010928600D7
:1012400016D76153754781099109609387007093A0
:1012500088008093890090938A0000E487E0782ECC
:1012600098EE292E93E0392E412C512C20E1622E4C
:10127000A89553D7FCD66B017C018091B0008823E0
:1012800009F497C01092B0008ED7909366008093B7
:101290006500B2996CC08830904208F068C08091B7
:1012A000AF00811106C06091780081E0682780E07E
:1012B000A8DB81E08093AF0031EA3093BC0010924C
:1012C000BB0071C01092BD001092BB00B12CE12C8C
:1012D00080EA8093BC00B0CE8F5F8093BD0094CE37
:1012E00010E090E04DCF1092BB005AC2BE016F5F7C
:1012F0007F4FCE01089660DA882309F48CCF809165
:101300007B00811188CF8091AF00811184CF8091C3
:101310007D00811180CF6981888511D77DCF1093A1
:10132000B00089CF20E440E460E480E4DED786E0CA
:10133000A8954FEF50E792E0415050409040E1F7C0
:1013400000C000008150A1F781E08093860087E013
:10135000809367008CD66093870070938800809399
:10136000890090938A00CA9978CFD8DB76CF41E084
:10137000BE016F5F7F4F8FE0BFD9882309F4D9C0CA
:101380008981982F937009F4D4C08C7F898741E0BC
:10139000BE01675F7F4F8FE076DA811103C081E085
:1013A00080937A0092DBB29B04C00ABF8BB7806443
:1013B0008BBF0BB606FC06C0B29BBEC00ABF8BB784
:1013C00080648BBF8091AB009091AC00A091AD0088
:1013D000B091AE00A7019601281B390B4A0B5B0B9D
:1013E000DA01C90188389341A105B10590F0C09296
:1013F000AB00D092AC00E092AD00F092AE00109144
:10140000AF0010DD112329F08091AF00811101C0E0
:101410005CDB8091A7009091A800A091A900B091F9
:10142000AA00A7019601281B390B4A0B5B0BDA01B6
:10143000C90180339547A105B10548F0C092A700C6
:10144000D092A800E092A900F092AA003EDB809121
:10145000A300811104C080919500882349F1C092B6
:101460008700D0928800E0928900F0928A008091F3
:101470008600811109C081E0809386007092670028
:10148000109295001092A3008091A300882381F010
:101490001092A300D701C6018053984FAF4FBF4FA2
:1014A0008093820090938300A0938400B093850082
:1014B0008091A400882351F01092A400C09287006C
:1014C000D0928800E0928900F0928A008091950085
:1014D00081111092950080919600882351F010920E
:1014E0009600C0928700D0928800E0928900F09226
:1014F0008A0080918600882309F45FC180918B0067
:10150000882309F469C1B3D52091910030919200EC
:10151000621B730B603D774008F45EC1CA9918C026
:10152000A895FBD58FE19EE40197F1F700C000007C
:10153000F5CFB29BB4CE37CF8091B000811142CFAE
:101540008091AF0081113ECF81E08093B0003ACF0F
:101550001092960010929500E1DA809187009091A8
:101560008800A0918900B0918A0046015701881A2D
:10157000990AAA0ABB0A80918600882309F461C0EF
:1015800017E091E1891697E29906A104B10408F0E9
:1015900011E01093670080917E0090917F00A091F0
:1015A0008000B0918100A7019601281B390B4A0BDE
:1015B0005B0BDA01C9018A3F9105A105B10508F469
:1015C00040C0C0927E00D0927F00E0928000F092F6
:1015D00081004DD56B017C01809182009091830048
:1015E000A0918400B0918500C816D906EA06FB06D2
:1015F00008F080C0809165009091660068EE73E00D
:1016000059D1AC01262F3CE73983862F6AE046D1B9
:10161000E92FF0E0E859FF4F80818B83CA0164E62F
:1016200070E048D1FB01E859FF4F80818C832A305C
:1016300008F05DC040E84A83412F61E0CE01019689
:1016400029D61092BD0010927D0031E3831635E754
:101650009306A104B10408F40BCE80919900811186
:1016600007CE80918B00811103CE8091B000811153
:10167000FFCD80918600882319F098D710928600BC
:10168000F89482B3866082BB6ABE8BB780618BBFE1
:1016900085B7877E806185BF85B7806285BFA89545
:1016A0007894889585B78F7D85BF8BB78F7E8BBFEC
:1016B00082B3897F82BBA895C99B02C0CA99D8CD45
:1016C000D6D46093870070938800809389009093AC
:1016D0008A0081E0809386007092670010928200F9
:1016E000109283001092840010928500C1CD56E8BC
:1016F0005A83A2CF80917C00811108C080917B0029
:10170000811104C080917A00882331F020E040E507
:1017100060E589E7EAD595CF8091AF00811107C0D8
:101720008091650090916600803D904260F4C70111
:10173000B601A2019101E5D022FF05C020E040E002
:101740006CE588E3E7CFBE016F5F7F4FCE0108965F
:1017500033D88823D9F290917900992349F0C701B1
:10176000B60124EF31E040E050E0CBD0822F817011
:1017700020E0482F69818885DED563CF882309F46E
:1017800029CD80916500909166008939914208F4D5
:10179000AACD8091BB008F3F19F08F5F8093BB0073
:1017A0008091BB00833008F41ACD1092AF0080EA1C
:1017B0008093BC001092BB0012CD80918700909165
:1017C0008800A0918900B0918A0046015701881ACB
:1017D000990AAA0ABB0A35CF8091870090918800A8
:1017E000A0918900B0918A0046015701881A990A90
:1017F000AA0ABB0AC5CEDC01CB01FC01E199FECFF0
:1018000006C0FFBBEEBBE09A31960DB20D9241507F
:101810005040B8F70895E199FECF9FBB8EBBE09A88
:1018200099278DB30895DC01A40FB51F4150504096
:1018300040F0CB01840F951F2E9105D041505040B0
:10184000D8F70895262FE199FECF9FBB8EBBE09A73
:1018500001970DB2021639F01CBA2DBB0FB6F894E1
:10186000E29AE19A0FBE0895002480FD060E660FED
:1018700011F08695D1F7802D08950024552704C0D6
:10188000080E591F880F991F009729F076956795C4
:10189000B8F37105B9F7802D952F0895991B79E05C
:1018A00004C0991F961708F0961B881F7A95C9F7F0
:1018B00080950895AA1BBB1B51E107C0AA1FBB1F3F
:1018C000A617B70710F0A61BB70B881F991F5A95CC
:1018D000A9F780959095BC01CD01089597FB072E3F
:1018E00016F4009406D077FD08D0E4DF07FC05D09D
:1018F0003EF4909581959F4F0895709561957F4F27
:101900000895A1E21A2EAA1BBB1BFD010DC0AA1F40
:10191000BB1FEE1FFF1FA217B307E407F50720F058
:10192000A21BB30BE40BF50B661F771F881F991FD3
:101930001A9469F760957095809590959B01AC011C
:0A194000BD01CF010895F894FFCF18
:10194A001E171E051F0F27073F065B4F666D7D0793
:02195A007F6F9D
:00000001FF
